{
	"data": {
		"bytecode": {
			"linkReferences": {},
			"object": "60a060405234801561001057600080fd5b503373ffffffffffffffffffffffffffffffffffffffff1660808173ffffffffffffffffffffffffffffffffffffffff1681525050608051610c4161006e600039600081816102970152818161042a01526104f70152610c416000f3fe6080604052600436106100595760003560e01c80631ce940a914610072578063213dbea2146100af5780633ccfd60b146100da578063b60d4288146100f1578063dba6335f146100fb578063dc0d3dff1461012657610068565b3661006857610066610163565b005b610070610163565b005b34801561007e57600080fd5b5061009960048036038101906100949190610745565b610271565b6040516100a6919061078b565b60405180910390f35b3480156100bb57600080fd5b506100c4610289565b6040516100d1919061078b565b60405180910390f35b3480156100e657600080fd5b506100ef610295565b005b6100f9610163565b005b34801561010757600080fd5b506101106104f5565b60405161011d91906107b5565b60405180910390f35b34801561013257600080fd5b5061014d600480360381019061014891906107fc565b610519565b60405161015a91906107b5565b60405180910390f35b674563918244f4000061017534610558565b10156101b6576040517f08c379a00000000000000000000000000000000000000000000000000000000081526004016101ad90610886565b60405180910390fd5b6000339080600181540180825580915050600190039060005260206000200160009091909190916101000a81548173ffffffffffffffffffffffffffffffffffffffff021916908373ffffffffffffffffffffffffffffffffffffffff16021790555034600160003373ffffffffffffffffffffffffffffffffffffffff1673ffffffffffffffffffffffffffffffffffffffff168152602001908152602001600020600082825461026891906108d5565b92505081905550565b60016020528060005260406000206000915090505481565b674563918244f4000081565b7f000000000000000000000000000000000000000000000000000000000000000073ffffffffffffffffffffffffffffffffffffffff163373ffffffffffffffffffffffffffffffffffffffff161461031a576040517f30cd747100000000000000000000000000000000000000000000000000000000815260040160405180910390fd5b60005b6000805490508110156103c557600080828154811061033f5761033e610909565b5b9060005260206000200160009054906101000a900473ffffffffffffffffffffffffffffffffffffffff1690506000600160008373ffffffffffffffffffffffffffffffffffffffff1673ffffffffffffffffffffffffffffffffffffffff168152602001908152602001600020819055505080806103bd90610938565b91505061031d565b50600067ffffffffffffffff8111156103e1576103e0610980565b5b60405190808252806020026020018201604052801561040f5781602001602082028036833780820191505090505b506000908051906020019061042592919061063b565b5060007f000000000000000000000000000000000000000000000000000000000000000073ffffffffffffffffffffffffffffffffffffffff164760405161046c906109e0565b60006040518083038185875af1925050503d80600081146104a9576040519150601f19603f3d011682016040523d82523d6000602084013e6104ae565b606091505b50509050806104f2576040517f08c379a00000000000000000000000000000000000000000000000000000000081526004016104e990610a41565b60405180910390fd5b50565b7f000000000000000000000000000000000000000000000000000000000000000081565b6000818154811061052957600080fd5b906000526020600020016000915054906101000a900473ffffffffffffffffffffffffffffffffffffffff1681565b600080610563610592565b90506000670de0b6b3a7640000828561057c9190610a61565b6105869190610ad2565b90508092505050919050565b60008073694aa1769357215de4fac081bf1f309adc325306905060008173ffffffffffffffffffffffffffffffffffffffff1663feaf968c6040518163ffffffff1660e01b815260040160a060405180830381865afa1580156105f9573d6000803e3d6000fd5b505050506040513d601f19601f8201168201806040525081019061061d9190610b90565b5050509150506402540be400816106349190610a61565b9250505090565b8280548282559060005260206000209081019282156106b4579160200282015b828111156106b35782518260006101000a81548173ffffffffffffffffffffffffffffffffffffffff021916908373ffffffffffffffffffffffffffffffffffffffff1602179055509160200191906001019061065b565b5b5090506106c191906106c5565b5090565b5b808211156106de5760008160009055506001016106c6565b5090565b600080fd5b600073ffffffffffffffffffffffffffffffffffffffff82169050919050565b6000610712826106e7565b9050919050565b61072281610707565b811461072d57600080fd5b50565b60008135905061073f81610719565b92915050565b60006020828403121561075b5761075a6106e2565b5b600061076984828501610730565b91505092915050565b6000819050919050565b61078581610772565b82525050565b60006020820190506107a0600083018461077c565b92915050565b6107af81610707565b82525050565b60006020820190506107ca60008301846107a6565b92915050565b6107d981610772565b81146107e457600080fd5b50565b6000813590506107f6816107d0565b92915050565b600060208284031215610812576108116106e2565b5b6000610820848285016107e7565b91505092915050565b600082825260208201905092915050565b7f4469646e27742073656e6420656e6f7567682045544800000000000000000000600082015250565b6000610870601683610829565b915061087b8261083a565b602082019050919050565b6000602082019050818103600083015261089f81610863565b9050919050565b7f4e487b7100000000000000000000000000000000000000000000000000000000600052601160045260246000fd5b60006108e082610772565b91506108eb83610772565b9250828201905080821115610903576109026108a6565b5b92915050565b7f4e487b7100000000000000000000000000000000000000000000000000000000600052603260045260246000fd5b600061094382610772565b91507fffffffffffffffffffffffffffffffffffffffffffffffffffffffffffffffff8203610975576109746108a6565b5b600182019050919050565b7f4e487b7100000000000000000000000000000000000000000000000000000000600052604160045260246000fd5b600081905092915050565b50565b60006109ca6000836109af565b91506109d5826109ba565b600082019050919050565b60006109eb826109bd565b9150819050919050565b7f43616c6c206661696c6564210000000000000000000000000000000000000000600082015250565b6000610a2b600c83610829565b9150610a36826109f5565b602082019050919050565b60006020820190508181036000830152610a5a81610a1e565b9050919050565b6000610a6c82610772565b9150610a7783610772565b9250828202610a8581610772565b91508282048414831517610a9c57610a9b6108a6565b5b5092915050565b7f4e487b7100000000000000000000000000000000000000000000000000000000600052601260045260246000fd5b6000610add82610772565b9150610ae883610772565b925082610af857610af7610aa3565b5b828204905092915050565b600069ffffffffffffffffffff82169050919050565b610b2281610b03565b8114610b2d57600080fd5b50565b600081519050610b3f81610b19565b92915050565b6000819050919050565b610b5881610b45565b8114610b6357600080fd5b50565b600081519050610b7581610b4f565b92915050565b600081519050610b8a816107d0565b92915050565b600080600080600060a08688031215610bac57610bab6106e2565b5b6000610bba88828901610b30565b9550506020610bcb88828901610b66565b9450506040610bdc88828901610b7b565b9350506060610bed88828901610b7b565b9250506080610bfe88828901610b30565b915050929550929590935056fea26469706673582212206391774aaee2d926c5acecbaf939095f0d3238479aeeb733357547531995aaf064736f6c63430008130033",
			"opcodes": "PUSH1 0xA0 PUSH1 0x40 MSTORE CALLVALUE DUP1 ISZERO PUSH2 0x10 JUMPI PUSH1 0x0 DUP1 REVERT JUMPDEST POP CALLER PUSH20 0xFFFFFFFFFFFFFFFFFFFFFFFFFFFFFFFFFFFFFFFF AND PUSH1 0x80 DUP2 PUSH20 0xFFFFFFFFFFFFFFFFFFFFFFFFFFFFFFFFFFFFFFFF AND DUP2 MSTORE POP POP PUSH1 0x80 MLOAD PUSH2 0xC41 PUSH2 0x6E PUSH1 0x0 CODECOPY PUSH1 0x0 DUP2 DUP2 PUSH2 0x297 ADD MSTORE DUP2 DUP2 PUSH2 0x42A ADD MSTORE PUSH2 0x4F7 ADD MSTORE PUSH2 0xC41 PUSH1 0x0 RETURN INVALID PUSH1 0x80 PUSH1 0x40 MSTORE PUSH1 0x4 CALLDATASIZE LT PUSH2 0x59 JUMPI PUSH1 0x0 CALLDATALOAD PUSH1 0xE0 SHR DUP1 PUSH4 0x1CE940A9 EQ PUSH2 0x72 JUMPI DUP1 PUSH4 0x213DBEA2 EQ PUSH2 0xAF JUMPI DUP1 PUSH4 0x3CCFD60B EQ PUSH2 0xDA JUMPI DUP1 PUSH4 0xB60D4288 EQ PUSH2 0xF1 JUMPI DUP1 PUSH4 0xDBA6335F EQ PUSH2 0xFB JUMPI DUP1 PUSH4 0xDC0D3DFF EQ PUSH2 0x126 JUMPI PUSH2 0x68 JUMP JUMPDEST CALLDATASIZE PUSH2 0x68 JUMPI PUSH2 0x66 PUSH2 0x163 JUMP JUMPDEST STOP JUMPDEST PUSH2 0x70 PUSH2 0x163 JUMP JUMPDEST STOP JUMPDEST CALLVALUE DUP1 ISZERO PUSH2 0x7E JUMPI PUSH1 0x0 DUP1 REVERT JUMPDEST POP PUSH2 0x99 PUSH1 0x4 DUP1 CALLDATASIZE SUB DUP2 ADD SWAP1 PUSH2 0x94 SWAP2 SWAP1 PUSH2 0x745 JUMP JUMPDEST PUSH2 0x271 JUMP JUMPDEST PUSH1 0x40 MLOAD PUSH2 0xA6 SWAP2 SWAP1 PUSH2 0x78B JUMP JUMPDEST PUSH1 0x40 MLOAD DUP1 SWAP2 SUB SWAP1 RETURN JUMPDEST CALLVALUE DUP1 ISZERO PUSH2 0xBB JUMPI PUSH1 0x0 DUP1 REVERT JUMPDEST POP PUSH2 0xC4 PUSH2 0x289 JUMP JUMPDEST PUSH1 0x40 MLOAD PUSH2 0xD1 SWAP2 SWAP1 PUSH2 0x78B JUMP JUMPDEST PUSH1 0x40 MLOAD DUP1 SWAP2 SUB SWAP1 RETURN JUMPDEST CALLVALUE DUP1 ISZERO PUSH2 0xE6 JUMPI PUSH1 0x0 DUP1 REVERT JUMPDEST POP PUSH2 0xEF PUSH2 0x295 JUMP JUMPDEST STOP JUMPDEST PUSH2 0xF9 PUSH2 0x163 JUMP JUMPDEST STOP JUMPDEST CALLVALUE DUP1 ISZERO PUSH2 0x107 JUMPI PUSH1 0x0 DUP1 REVERT JUMPDEST POP PUSH2 0x110 PUSH2 0x4F5 JUMP JUMPDEST PUSH1 0x40 MLOAD PUSH2 0x11D SWAP2 SWAP1 PUSH2 0x7B5 JUMP JUMPDEST PUSH1 0x40 MLOAD DUP1 SWAP2 SUB SWAP1 RETURN JUMPDEST CALLVALUE DUP1 ISZERO PUSH2 0x132 JUMPI PUSH1 0x0 DUP1 REVERT JUMPDEST POP PUSH2 0x14D PUSH1 0x4 DUP1 CALLDATASIZE SUB DUP2 ADD SWAP1 PUSH2 0x148 SWAP2 SWAP1 PUSH2 0x7FC JUMP JUMPDEST PUSH2 0x519 JUMP JUMPDEST PUSH1 0x40 MLOAD PUSH2 0x15A SWAP2 SWAP1 PUSH2 0x7B5 JUMP JUMPDEST PUSH1 0x40 MLOAD DUP1 SWAP2 SUB SWAP1 RETURN JUMPDEST PUSH8 0x4563918244F40000 PUSH2 0x175 CALLVALUE PUSH2 0x558 JUMP JUMPDEST LT ISZERO PUSH2 0x1B6 JUMPI PUSH1 0x40 MLOAD PUSH32 0x8C379A000000000000000000000000000000000000000000000000000000000 DUP2 MSTORE PUSH1 0x4 ADD PUSH2 0x1AD SWAP1 PUSH2 0x886 JUMP JUMPDEST PUSH1 0x40 MLOAD DUP1 SWAP2 SUB SWAP1 REVERT JUMPDEST PUSH1 0x0 CALLER SWAP1 DUP1 PUSH1 0x1 DUP2 SLOAD ADD DUP1 DUP3 SSTORE DUP1 SWAP2 POP POP PUSH1 0x1 SWAP1 SUB SWAP1 PUSH1 0x0 MSTORE PUSH1 0x20 PUSH1 0x0 KECCAK256 ADD PUSH1 0x0 SWAP1 SWAP2 SWAP1 SWAP2 SWAP1 SWAP2 PUSH2 0x100 EXP DUP2 SLOAD DUP2 PUSH20 0xFFFFFFFFFFFFFFFFFFFFFFFFFFFFFFFFFFFFFFFF MUL NOT AND SWAP1 DUP4 PUSH20 0xFFFFFFFFFFFFFFFFFFFFFFFFFFFFFFFFFFFFFFFF AND MUL OR SWAP1 SSTORE POP CALLVALUE PUSH1 0x1 PUSH1 0x0 CALLER PUSH20 0xFFFFFFFFFFFFFFFFFFFFFFFFFFFFFFFFFFFFFFFF AND PUSH20 0xFFFFFFFFFFFFFFFFFFFFFFFFFFFFFFFFFFFFFFFF AND DUP2 MSTORE PUSH1 0x20 ADD SWAP1 DUP2 MSTORE PUSH1 0x20 ADD PUSH1 0x0 KECCAK256 PUSH1 0x0 DUP3 DUP3 SLOAD PUSH2 0x268 SWAP2 SWAP1 PUSH2 0x8D5 JUMP JUMPDEST SWAP3 POP POP DUP2 SWAP1 SSTORE POP JUMP JUMPDEST PUSH1 0x1 PUSH1 0x20 MSTORE DUP1 PUSH1 0x0 MSTORE PUSH1 0x40 PUSH1 0x0 KECCAK256 PUSH1 0x0 SWAP2 POP SWAP1 POP SLOAD DUP2 JUMP JUMPDEST PUSH8 0x4563918244F40000 DUP2 JUMP JUMPDEST PUSH32 0x0 PUSH20 0xFFFFFFFFFFFFFFFFFFFFFFFFFFFFFFFFFFFFFFFF AND CALLER PUSH20 0xFFFFFFFFFFFFFFFFFFFFFFFFFFFFFFFFFFFFFFFF AND EQ PUSH2 0x31A JUMPI PUSH1 0x40 MLOAD PUSH32 0x30CD747100000000000000000000000000000000000000000000000000000000 DUP2 MSTORE PUSH1 0x4 ADD PUSH1 0x40 MLOAD DUP1 SWAP2 SUB SWAP1 REVERT JUMPDEST PUSH1 0x0 JUMPDEST PUSH1 0x0 DUP1 SLOAD SWAP1 POP DUP2 LT ISZERO PUSH2 0x3C5 JUMPI PUSH1 0x0 DUP1 DUP3 DUP2 SLOAD DUP2 LT PUSH2 0x33F JUMPI PUSH2 0x33E PUSH2 0x909 JUMP JUMPDEST JUMPDEST SWAP1 PUSH1 0x0 MSTORE PUSH1 0x20 PUSH1 0x0 KECCAK256 ADD PUSH1 0x0 SWAP1 SLOAD SWAP1 PUSH2 0x100 EXP SWAP1 DIV PUSH20 0xFFFFFFFFFFFFFFFFFFFFFFFFFFFFFFFFFFFFFFFF AND SWAP1 POP PUSH1 0x0 PUSH1 0x1 PUSH1 0x0 DUP4 PUSH20 0xFFFFFFFFFFFFFFFFFFFFFFFFFFFFFFFFFFFFFFFF AND PUSH20 0xFFFFFFFFFFFFFFFFFFFFFFFFFFFFFFFFFFFFFFFF AND DUP2 MSTORE PUSH1 0x20 ADD SWAP1 DUP2 MSTORE PUSH1 0x20 ADD PUSH1 0x0 KECCAK256 DUP2 SWAP1 SSTORE POP POP DUP1 DUP1 PUSH2 0x3BD SWAP1 PUSH2 0x938 JUMP JUMPDEST SWAP2 POP POP PUSH2 0x31D JUMP JUMPDEST POP PUSH1 0x0 PUSH8 0xFFFFFFFFFFFFFFFF DUP2 GT ISZERO PUSH2 0x3E1 JUMPI PUSH2 0x3E0 PUSH2 0x980 JUMP JUMPDEST JUMPDEST PUSH1 0x40 MLOAD SWAP1 DUP1 DUP3 MSTORE DUP1 PUSH1 0x20 MUL PUSH1 0x20 ADD DUP3 ADD PUSH1 0x40 MSTORE DUP1 ISZERO PUSH2 0x40F JUMPI DUP2 PUSH1 0x20 ADD PUSH1 0x20 DUP3 MUL DUP1 CALLDATASIZE DUP4 CALLDATACOPY DUP1 DUP3 ADD SWAP2 POP POP SWAP1 POP JUMPDEST POP PUSH1 0x0 SWAP1 DUP1 MLOAD SWAP1 PUSH1 0x20 ADD SWAP1 PUSH2 0x425 SWAP3 SWAP2 SWAP1 PUSH2 0x63B JUMP JUMPDEST POP PUSH1 0x0 PUSH32 0x0 PUSH20 0xFFFFFFFFFFFFFFFFFFFFFFFFFFFFFFFFFFFFFFFF AND SELFBALANCE PUSH1 0x40 MLOAD PUSH2 0x46C SWAP1 PUSH2 0x9E0 JUMP JUMPDEST PUSH1 0x0 PUSH1 0x40 MLOAD DUP1 DUP4 SUB DUP2 DUP6 DUP8 GAS CALL SWAP3 POP POP POP RETURNDATASIZE DUP1 PUSH1 0x0 DUP2 EQ PUSH2 0x4A9 JUMPI PUSH1 0x40 MLOAD SWAP2 POP PUSH1 0x1F NOT PUSH1 0x3F RETURNDATASIZE ADD AND DUP3 ADD PUSH1 0x40 MSTORE RETURNDATASIZE DUP3 MSTORE RETURNDATASIZE PUSH1 0x0 PUSH1 0x20 DUP5 ADD RETURNDATACOPY PUSH2 0x4AE JUMP JUMPDEST PUSH1 0x60 SWAP2 POP JUMPDEST POP POP SWAP1 POP DUP1 PUSH2 0x4F2 JUMPI PUSH1 0x40 MLOAD PUSH32 0x8C379A000000000000000000000000000000000000000000000000000000000 DUP2 MSTORE PUSH1 0x4 ADD PUSH2 0x4E9 SWAP1 PUSH2 0xA41 JUMP JUMPDEST PUSH1 0x40 MLOAD DUP1 SWAP2 SUB SWAP1 REVERT JUMPDEST POP JUMP JUMPDEST PUSH32 0x0 DUP2 JUMP JUMPDEST PUSH1 0x0 DUP2 DUP2 SLOAD DUP2 LT PUSH2 0x529 JUMPI PUSH1 0x0 DUP1 REVERT JUMPDEST SWAP1 PUSH1 0x0 MSTORE PUSH1 0x20 PUSH1 0x0 KECCAK256 ADD PUSH1 0x0 SWAP2 POP SLOAD SWAP1 PUSH2 0x100 EXP SWAP1 DIV PUSH20 0xFFFFFFFFFFFFFFFFFFFFFFFFFFFFFFFFFFFFFFFF AND DUP2 JUMP JUMPDEST PUSH1 0x0 DUP1 PUSH2 0x563 PUSH2 0x592 JUMP JUMPDEST SWAP1 POP PUSH1 0x0 PUSH8 0xDE0B6B3A7640000 DUP3 DUP6 PUSH2 0x57C SWAP2 SWAP1 PUSH2 0xA61 JUMP JUMPDEST PUSH2 0x586 SWAP2 SWAP1 PUSH2 0xAD2 JUMP JUMPDEST SWAP1 POP DUP1 SWAP3 POP POP POP SWAP2 SWAP1 POP JUMP JUMPDEST PUSH1 0x0 DUP1 PUSH20 0x694AA1769357215DE4FAC081BF1F309ADC325306 SWAP1 POP PUSH1 0x0 DUP2 PUSH20 0xFFFFFFFFFFFFFFFFFFFFFFFFFFFFFFFFFFFFFFFF AND PUSH4 0xFEAF968C PUSH1 0x40 MLOAD DUP2 PUSH4 0xFFFFFFFF AND PUSH1 0xE0 SHL DUP2 MSTORE PUSH1 0x4 ADD PUSH1 0xA0 PUSH1 0x40 MLOAD DUP1 DUP4 SUB DUP2 DUP7 GAS STATICCALL ISZERO DUP1 ISZERO PUSH2 0x5F9 JUMPI RETURNDATASIZE PUSH1 0x0 DUP1 RETURNDATACOPY RETURNDATASIZE PUSH1 0x0 REVERT JUMPDEST POP POP POP POP PUSH1 0x40 MLOAD RETURNDATASIZE PUSH1 0x1F NOT PUSH1 0x1F DUP3 ADD AND DUP3 ADD DUP1 PUSH1 0x40 MSTORE POP DUP2 ADD SWAP1 PUSH2 0x61D SWAP2 SWAP1 PUSH2 0xB90 JUMP JUMPDEST POP POP POP SWAP2 POP POP PUSH5 0x2540BE400 DUP2 PUSH2 0x634 SWAP2 SWAP1 PUSH2 0xA61 JUMP JUMPDEST SWAP3 POP POP POP SWAP1 JUMP JUMPDEST DUP3 DUP1 SLOAD DUP3 DUP3 SSTORE SWAP1 PUSH1 0x0 MSTORE PUSH1 0x20 PUSH1 0x0 KECCAK256 SWAP1 DUP2 ADD SWAP3 DUP3 ISZERO PUSH2 0x6B4 JUMPI SWAP2 PUSH1 0x20 MUL DUP3 ADD JUMPDEST DUP3 DUP2 GT ISZERO PUSH2 0x6B3 JUMPI DUP3 MLOAD DUP3 PUSH1 0x0 PUSH2 0x100 EXP DUP2 SLOAD DUP2 PUSH20 0xFFFFFFFFFFFFFFFFFFFFFFFFFFFFFFFFFFFFFFFF MUL NOT AND SWAP1 DUP4 PUSH20 0xFFFFFFFFFFFFFFFFFFFFFFFFFFFFFFFFFFFFFFFF AND MUL OR SWAP1 SSTORE POP SWAP2 PUSH1 0x20 ADD SWAP2 SWAP1 PUSH1 0x1 ADD SWAP1 PUSH2 0x65B JUMP JUMPDEST JUMPDEST POP SWAP1 POP PUSH2 0x6C1 SWAP2 SWAP1 PUSH2 0x6C5 JUMP JUMPDEST POP SWAP1 JUMP JUMPDEST JUMPDEST DUP1 DUP3 GT ISZERO PUSH2 0x6DE JUMPI PUSH1 0x0 DUP2 PUSH1 0x0 SWAP1 SSTORE POP PUSH1 0x1 ADD PUSH2 0x6C6 JUMP JUMPDEST POP SWAP1 JUMP JUMPDEST PUSH1 0x0 DUP1 REVERT JUMPDEST PUSH1 0x0 PUSH20 0xFFFFFFFFFFFFFFFFFFFFFFFFFFFFFFFFFFFFFFFF DUP3 AND SWAP1 POP SWAP2 SWAP1 POP JUMP JUMPDEST PUSH1 0x0 PUSH2 0x712 DUP3 PUSH2 0x6E7 JUMP JUMPDEST SWAP1 POP SWAP2 SWAP1 POP JUMP JUMPDEST PUSH2 0x722 DUP2 PUSH2 0x707 JUMP JUMPDEST DUP2 EQ PUSH2 0x72D JUMPI PUSH1 0x0 DUP1 REVERT JUMPDEST POP JUMP JUMPDEST PUSH1 0x0 DUP2 CALLDATALOAD SWAP1 POP PUSH2 0x73F DUP2 PUSH2 0x719 JUMP JUMPDEST SWAP3 SWAP2 POP POP JUMP JUMPDEST PUSH1 0x0 PUSH1 0x20 DUP3 DUP5 SUB SLT ISZERO PUSH2 0x75B JUMPI PUSH2 0x75A PUSH2 0x6E2 JUMP JUMPDEST JUMPDEST PUSH1 0x0 PUSH2 0x769 DUP5 DUP3 DUP6 ADD PUSH2 0x730 JUMP JUMPDEST SWAP2 POP POP SWAP3 SWAP2 POP POP JUMP JUMPDEST PUSH1 0x0 DUP2 SWAP1 POP SWAP2 SWAP1 POP JUMP JUMPDEST PUSH2 0x785 DUP2 PUSH2 0x772 JUMP JUMPDEST DUP3 MSTORE POP POP JUMP JUMPDEST PUSH1 0x0 PUSH1 0x20 DUP3 ADD SWAP1 POP PUSH2 0x7A0 PUSH1 0x0 DUP4 ADD DUP5 PUSH2 0x77C JUMP JUMPDEST SWAP3 SWAP2 POP POP JUMP JUMPDEST PUSH2 0x7AF DUP2 PUSH2 0x707 JUMP JUMPDEST DUP3 MSTORE POP POP JUMP JUMPDEST PUSH1 0x0 PUSH1 0x20 DUP3 ADD SWAP1 POP PUSH2 0x7CA PUSH1 0x0 DUP4 ADD DUP5 PUSH2 0x7A6 JUMP JUMPDEST SWAP3 SWAP2 POP POP JUMP JUMPDEST PUSH2 0x7D9 DUP2 PUSH2 0x772 JUMP JUMPDEST DUP2 EQ PUSH2 0x7E4 JUMPI PUSH1 0x0 DUP1 REVERT JUMPDEST POP JUMP JUMPDEST PUSH1 0x0 DUP2 CALLDATALOAD SWAP1 POP PUSH2 0x7F6 DUP2 PUSH2 0x7D0 JUMP JUMPDEST SWAP3 SWAP2 POP POP JUMP JUMPDEST PUSH1 0x0 PUSH1 0x20 DUP3 DUP5 SUB SLT ISZERO PUSH2 0x812 JUMPI PUSH2 0x811 PUSH2 0x6E2 JUMP JUMPDEST JUMPDEST PUSH1 0x0 PUSH2 0x820 DUP5 DUP3 DUP6 ADD PUSH2 0x7E7 JUMP JUMPDEST SWAP2 POP POP SWAP3 SWAP2 POP POP JUMP JUMPDEST PUSH1 0x0 DUP3 DUP3 MSTORE PUSH1 0x20 DUP3 ADD SWAP1 POP SWAP3 SWAP2 POP POP JUMP JUMPDEST PUSH32 0x4469646E27742073656E6420656E6F7567682045544800000000000000000000 PUSH1 0x0 DUP3 ADD MSTORE POP JUMP JUMPDEST PUSH1 0x0 PUSH2 0x870 PUSH1 0x16 DUP4 PUSH2 0x829 JUMP JUMPDEST SWAP2 POP PUSH2 0x87B DUP3 PUSH2 0x83A JUMP JUMPDEST PUSH1 0x20 DUP3 ADD SWAP1 POP SWAP2 SWAP1 POP JUMP JUMPDEST PUSH1 0x0 PUSH1 0x20 DUP3 ADD SWAP1 POP DUP2 DUP2 SUB PUSH1 0x0 DUP4 ADD MSTORE PUSH2 0x89F DUP2 PUSH2 0x863 JUMP JUMPDEST SWAP1 POP SWAP2 SWAP1 POP JUMP JUMPDEST PUSH32 0x4E487B7100000000000000000000000000000000000000000000000000000000 PUSH1 0x0 MSTORE PUSH1 0x11 PUSH1 0x4 MSTORE PUSH1 0x24 PUSH1 0x0 REVERT JUMPDEST PUSH1 0x0 PUSH2 0x8E0 DUP3 PUSH2 0x772 JUMP JUMPDEST SWAP2 POP PUSH2 0x8EB DUP4 PUSH2 0x772 JUMP JUMPDEST SWAP3 POP DUP3 DUP3 ADD SWAP1 POP DUP1 DUP3 GT ISZERO PUSH2 0x903 JUMPI PUSH2 0x902 PUSH2 0x8A6 JUMP JUMPDEST JUMPDEST SWAP3 SWAP2 POP POP JUMP JUMPDEST PUSH32 0x4E487B7100000000000000000000000000000000000000000000000000000000 PUSH1 0x0 MSTORE PUSH1 0x32 PUSH1 0x4 MSTORE PUSH1 0x24 PUSH1 0x0 REVERT JUMPDEST PUSH1 0x0 PUSH2 0x943 DUP3 PUSH2 0x772 JUMP JUMPDEST SWAP2 POP PUSH32 0xFFFFFFFFFFFFFFFFFFFFFFFFFFFFFFFFFFFFFFFFFFFFFFFFFFFFFFFFFFFFFFFF DUP3 SUB PUSH2 0x975 JUMPI PUSH2 0x974 PUSH2 0x8A6 JUMP JUMPDEST JUMPDEST PUSH1 0x1 DUP3 ADD SWAP1 POP SWAP2 SWAP1 POP JUMP JUMPDEST PUSH32 0x4E487B7100000000000000000000000000000000000000000000000000000000 PUSH1 0x0 MSTORE PUSH1 0x41 PUSH1 0x4 MSTORE PUSH1 0x24 PUSH1 0x0 REVERT JUMPDEST PUSH1 0x0 DUP2 SWAP1 POP SWAP3 SWAP2 POP POP JUMP JUMPDEST POP JUMP JUMPDEST PUSH1 0x0 PUSH2 0x9CA PUSH1 0x0 DUP4 PUSH2 0x9AF JUMP JUMPDEST SWAP2 POP PUSH2 0x9D5 DUP3 PUSH2 0x9BA JUMP JUMPDEST PUSH1 0x0 DUP3 ADD SWAP1 POP SWAP2 SWAP1 POP JUMP JUMPDEST PUSH1 0x0 PUSH2 0x9EB DUP3 PUSH2 0x9BD JUMP JUMPDEST SWAP2 POP DUP2 SWAP1 POP SWAP2 SWAP1 POP JUMP JUMPDEST PUSH32 0x43616C6C206661696C6564210000000000000000000000000000000000000000 PUSH1 0x0 DUP3 ADD MSTORE POP JUMP JUMPDEST PUSH1 0x0 PUSH2 0xA2B PUSH1 0xC DUP4 PUSH2 0x829 JUMP JUMPDEST SWAP2 POP PUSH2 0xA36 DUP3 PUSH2 0x9F5 JUMP JUMPDEST PUSH1 0x20 DUP3 ADD SWAP1 POP SWAP2 SWAP1 POP JUMP JUMPDEST PUSH1 0x0 PUSH1 0x20 DUP3 ADD SWAP1 POP DUP2 DUP2 SUB PUSH1 0x0 DUP4 ADD MSTORE PUSH2 0xA5A DUP2 PUSH2 0xA1E JUMP JUMPDEST SWAP1 POP SWAP2 SWAP1 POP JUMP JUMPDEST PUSH1 0x0 PUSH2 0xA6C DUP3 PUSH2 0x772 JUMP JUMPDEST SWAP2 POP PUSH2 0xA77 DUP4 PUSH2 0x772 JUMP JUMPDEST SWAP3 POP DUP3 DUP3 MUL PUSH2 0xA85 DUP2 PUSH2 0x772 JUMP JUMPDEST SWAP2 POP DUP3 DUP3 DIV DUP5 EQ DUP4 ISZERO OR PUSH2 0xA9C JUMPI PUSH2 0xA9B PUSH2 0x8A6 JUMP JUMPDEST JUMPDEST POP SWAP3 SWAP2 POP POP JUMP JUMPDEST PUSH32 0x4E487B7100000000000000000000000000000000000000000000000000000000 PUSH1 0x0 MSTORE PUSH1 0x12 PUSH1 0x4 MSTORE PUSH1 0x24 PUSH1 0x0 REVERT JUMPDEST PUSH1 0x0 PUSH2 0xADD DUP3 PUSH2 0x772 JUMP JUMPDEST SWAP2 POP PUSH2 0xAE8 DUP4 PUSH2 0x772 JUMP JUMPDEST SWAP3 POP DUP3 PUSH2 0xAF8 JUMPI PUSH2 0xAF7 PUSH2 0xAA3 JUMP JUMPDEST JUMPDEST DUP3 DUP3 DIV SWAP1 POP SWAP3 SWAP2 POP POP JUMP JUMPDEST PUSH1 0x0 PUSH10 0xFFFFFFFFFFFFFFFFFFFF DUP3 AND SWAP1 POP SWAP2 SWAP1 POP JUMP JUMPDEST PUSH2 0xB22 DUP2 PUSH2 0xB03 JUMP JUMPDEST DUP2 EQ PUSH2 0xB2D JUMPI PUSH1 0x0 DUP1 REVERT JUMPDEST POP JUMP JUMPDEST PUSH1 0x0 DUP2 MLOAD SWAP1 POP PUSH2 0xB3F DUP2 PUSH2 0xB19 JUMP JUMPDEST SWAP3 SWAP2 POP POP JUMP JUMPDEST PUSH1 0x0 DUP2 SWAP1 POP SWAP2 SWAP1 POP JUMP JUMPDEST PUSH2 0xB58 DUP2 PUSH2 0xB45 JUMP JUMPDEST DUP2 EQ PUSH2 0xB63 JUMPI PUSH1 0x0 DUP1 REVERT JUMPDEST POP JUMP JUMPDEST PUSH1 0x0 DUP2 MLOAD SWAP1 POP PUSH2 0xB75 DUP2 PUSH2 0xB4F JUMP JUMPDEST SWAP3 SWAP2 POP POP JUMP JUMPDEST PUSH1 0x0 DUP2 MLOAD SWAP1 POP PUSH2 0xB8A DUP2 PUSH2 0x7D0 JUMP JUMPDEST SWAP3 SWAP2 POP POP JUMP JUMPDEST PUSH1 0x0 DUP1 PUSH1 0x0 DUP1 PUSH1 0x0 PUSH1 0xA0 DUP7 DUP9 SUB SLT ISZERO PUSH2 0xBAC JUMPI PUSH2 0xBAB PUSH2 0x6E2 JUMP JUMPDEST JUMPDEST PUSH1 0x0 PUSH2 0xBBA DUP9 DUP3 DUP10 ADD PUSH2 0xB30 JUMP JUMPDEST SWAP6 POP POP PUSH1 0x20 PUSH2 0xBCB DUP9 DUP3 DUP10 ADD PUSH2 0xB66 JUMP JUMPDEST SWAP5 POP POP PUSH1 0x40 PUSH2 0xBDC DUP9 DUP3 DUP10 ADD PUSH2 0xB7B JUMP JUMPDEST SWAP4 POP POP PUSH1 0x60 PUSH2 0xBED DUP9 DUP3 DUP10 ADD PUSH2 0xB7B JUMP JUMPDEST SWAP3 POP POP PUSH1 0x80 PUSH2 0xBFE DUP9 DUP3 DUP10 ADD PUSH2 0xB30 JUMP JUMPDEST SWAP2 POP POP SWAP3 SWAP6 POP SWAP3 SWAP6 SWAP1 SWAP4 POP JUMP INVALID LOG2 PUSH5 0x6970667358 0x22 SLT KECCAK256 PUSH4 0x91774AAE 0xE2 0xD9 0x26 0xC5 0xAC 0xEC 0xBA 0xF9 CODECOPY MULMOD 0x5F 0xD ORIGIN CODESIZE SELFBALANCE SWAP11 0xEE 0xB7 CALLER CALLDATALOAD PUSH22 0x47531995AAF064736F6C634300081300330000000000 "
		},
		"gasEstimates": {
			"creation": {
				"codeDepositCost": "627400",
				"executionCost": "infinite",
				"totalCost": "infinite"
			},
			"external": {
				"": "infinite",
				"MIN_USD()": "329",
				"amountFundedByAddress(address)": "2792",
				"fund()": "infinite",
				"funders(uint256)": "5044",
				"i_owner()": "infinite",
				"withdraw()": "infinite"
			}
		},
		"methodIdentifiers": {
			"MIN_USD()": "213dbea2",
			"amountFundedByAddress(address)": "1ce940a9",
			"fund()": "b60d4288",
			"funders(uint256)": "dc0d3dff",
			"i_owner()": "dba6335f",
			"withdraw()": "3ccfd60b"
		}
	},
	"abi": [
		{
			"inputs": [],
			"stateMutability": "nonpayable",
			"type": "constructor"
		},
		{
			"inputs": [],
			"name": "NotOwner",
			"type": "error"
		},
		{
			"stateMutability": "payable",
			"type": "fallback"
		},
		{
			"inputs": [],
			"name": "MIN_USD",
			"outputs": [
				{
					"internalType": "uint256",
					"name": "",
					"type": "uint256"
				}
			],
			"stateMutability": "view",
			"type": "function"
		},
		{
			"inputs": [
				{
					"internalType": "address",
					"name": "",
					"type": "address"
				}
			],
			"name": "amountFundedByAddress",
			"outputs": [
				{
					"internalType": "uint256",
					"name": "",
					"type": "uint256"
				}
			],
			"stateMutability": "view",
			"type": "function"
		},
		{
			"inputs": [],
			"name": "fund",
			"outputs": [],
			"stateMutability": "payable",
			"type": "function"
		},
		{
			"inputs": [
				{
					"internalType": "uint256",
					"name": "",
					"type": "uint256"
				}
			],
			"name": "funders",
			"outputs": [
				{
					"internalType": "address",
					"name": "",
					"type": "address"
				}
			],
			"stateMutability": "view",
			"type": "function"
		},
		{
			"inputs": [],
			"name": "i_owner",
			"outputs": [
				{
					"internalType": "address",
					"name": "",
					"type": "address"
				}
			],
			"stateMutability": "view",
			"type": "function"
		},
		{
			"inputs": [],
			"name": "withdraw",
			"outputs": [],
			"stateMutability": "nonpayable",
			"type": "function"
		},
		{
			"stateMutability": "payable",
			"type": "receive"
		}
	]
}